:100000000C948F000C948C160C948C160C948C16FB
:100010000C948C160C948C160C948C160C948C16D8
:100020000C948C160C948C160C948C160C948C16C8
:100030000C948C160C948C160C948C160C948C16B8
:100040000C948C160C948C160C948C160C948C16A8
:100050000C948C160C948C160C948C160C948C1698
:100060000C948C160C948C160C948C160C948C1688
:100070000C948C160C948C160C948C160C948C1678
:100080000C9489160C948C160C948C160C948C166B
:100090000C948C160C948C160C948C160C948C1658
:1000A0000C948C160C948C160C948C160C948C1648
:1000B0000C948C160C948C160C948C160C948C1638
:1000C0000C948C160C948C160C948C160C948C1628
:1000D0000C948C160C948C160C948C160C948C1618
:1000E0000C948C1602001A5F801A5F1A63002D1C94
:1000F0001A631A6D801A6D1A6F002D201A6F1A86F6
:1001000080000C94B7120C9487000C94FE12C5E08A
:10011000DAE188818230F0F30E94BE10FACF112418
:100120001FBECFEFD1E2DEBFCDBF00E00CBFE4EEDB
:10013000F0E041E019C0B791A7913791279107915D
:1001400007FD0EC097918791EF01F92FE82F0BBFA4
:1001500007900D92A217B307D9F7FE011BBE04C08A
:100160001D92A217B307E1F7E130F40721F70E94CF
:0A017000F80F0C94BB00F894FFCFC9
:10017A007374007274004661696C656420746F2040
:09018A0073656E642025630A0010
:0501930049444C450049
:100198002F923F924F926F927F928F929F92AF923F
:1001A800BF92CF92DF92EF92FF920F931F93CF935C
:1001B800DF93CDB7DEB72B970FB6F894DEBF0FBE2F
:1001C800CDBF7C0149875A876B873D832C8310E01C
:1001D800A0E89C014A2F265E3F4F4F4F2E833F8356
:1001E80048871C014A2E3BE1230E311C411C3C016F
:1001F80048E0640E711CD62C972C80E8882E570195
:10020800E1E1AE0EB11CF0E8CF2E0FB6F8940F92D4
:10021800F701928D838D981720F0023009F06FC096
:1002280095C1F701248D21110EC0F70180819181BC
:10023800892B09F04EC0828193810E947513F701C2
:100248001382128246C001111BC030E049855A85CD
:100258006B85F701848195810E941E15F701248D15
:1002680084819581820F911D9583848322813381B6
:100278008217930770F1808191819583848329C0C7
:1002880030E049855A856B85F701868197810E9400
:100298001E15F701848D90E091958195910926812D
:1002A8003781280F391F37832683408151812417CE
:1002B800350730F422813381820F931F9783868319
:1002C800023039F4F701828D882319F0828D81502C
:1002D800828FF701828D8F5F828F8189882359F001
:1002E800F1E1EF0EF11CB70180E80E942212813083
:1002F80011F40E94BE100F900FBE81E02DC18C81B9
:100308009D81892B21F40F900FBE80E025C111112A
:1003180005C0CE0101960E94EA1511E00F900FBEAC
:100328000E9460160FB6F8940F92F701858D8F3FE3
:1003380009F4158EF701868D8F3F09F4168E0F90FC
:100348000FBEBE016C5F7F4FCE0101960E943A132B
:100358008111A7C00FB6F8940F92EE81FF815885DE
:100368000E945216862F0F900FBEF101542D0E9445
:100378005216861350C06C817D818D2D992D0E9457
:100388001F110FB6F8940F92F701868D1816B4F462
:100398008189811105C012C0F7018189882371F014
:1003A8008C2DB5010E94221281110E947516F70149
:1003B800868D8150868F868D181674F38FEFF7011E
:1003C800868F0F900FBE0FB6F8940F92858D181672
:1003D800B4F48085811105C012C0F7018085882397
:1003E80071F0882DB3010E94221281110E947516A6
:1003F800F701858D8150858F858D181674F38FEFE1
:10040800F701858F0F900FBE0E94A9078111FDCEBD
:100418000E94BE10FACE0FB6F8940F92F701868D9F
:100428001816B4F48189811105C012C0F7018189B9
:10043800882371F08C2DB5010E94221281110E942F
:100448007516F701868D8150868F868D181674F380
:100458008FEFF701868F0F900FBE0FB6F8940F92AB
:10046800858D1816B4F48085811105C012C0F70176
:100478008085882371F0882DB3010E942212811192
:100488000E947516F701858D8150858F858D181608
:1004980074F38FEFF701858F0F900FBE0E94A907A5
:1004A800B4CE0FB6F8940F92F701868D1816ECF4B7
:1004B8008189811106C019C0F7018189811107C09E
:1004C80014C03701F1E16F0E711C20E8822E882DCF
:1004D800B3010E94221281110E947516F701868DC0
:1004E8008150868F868D18163CF38FEFF701868F23
:1004F8000F900FBE0FB6F8940F92858D1816ECF476
:100508008085811106C019C0F7018085811107C057
:1005180014C03701F8E06F0E711C20E8822E882D78
:10052800B3010E94221281110E947516F701858D70
:100538008150858F858D18163CF38FEFF701858FD5
:100548000F900FBE0E94A90780E006C0F701248D16
:10055800222309F46ACE94CE2B960FB6F894DEBF08
:100568000FBECDBFDF91CF911F910F91FF90EF90FC
:10057800DF90CF90BF90AF909F908F907F906F90BB
:080588004F903F902F90089561
:100590002F923F924F925F926F927F928F929F9293
:1005A000AF92BF92CF92DF92EF92FF920F931F9381
:1005B000CF93DF93CDB7DEB727970FB6F894DEBFA2
:1005C0000FBECDBF8C017F836E835D834C83522E23
:1005D000F12C99249394A0E81C014A2E2AE1220EC2
:1005E000311C411C3C0188E0680E711CE0E88E2E35
:1005F0006801F1E1CF0ED11CAC2CBD2C20E8E22E1D
:100600000FB6F8940F92F801828D882309F44DC03B
:10061000E680F780808191810097B1F0248D30E0F1
:10062000A701420F531F5783468362817381461788
:10063000570710F097838683F8014681578160E859
:100640008E819F810E941E1551101CC0F801828D61
:100650008150828F80819181892B29F40E946C16B0
:10066000F80193838283F80180858823D1F0B80153
:10067000685F7F4F80E80E942212813091F40E94CF
:10068000BE100FC0F801F782E6828189882349F005
:10069000B8016F5E7F4F80E80E94221281110E9494
:1006A000BE100F900FBE81E02EC18C819D81892BE1
:1006B00021F40F900FBE80E026C1F11005C0CE01DD
:1006C00001960E94EA15F92C0F900FBE0E94601649
:1006D0000FB6F8940F92F801858D8F3F09F4158EAF
:1006E000F801868D8F3F09F4168E0F900FBEBE0164
:1006F0006C5F7F4FCE0101960E943A138111AFC00B
:100700000FB6F8940F92F101542D0E9452160F90DB
:100710000FBE61115EC0F80180819181892B49F47F
:100720000FB6F8940F92828193810E945C100F9013
:100730000FBE6C817D818A2D9B2D0E941F110FB6EB
:10074000F8940F92F801868D1816B4F481898111FE
:1007500005C012C0F8018189882371F08E2DB60181
:100760000E94221281110E947516F801868D815017
:10077000868F868D181674F38FEFF801868F0F9091
:100780000FBE0FB6F8940F92858D1816B4F48085BD
:10079000811105C012C0F8018085882371F0882D71
:1007A000B3010E94221281110E947516F801858DF5
:1007B0008150858F858D181674F38FEFF801858F22
:1007C0000F900FBE0E94A90781111ACF0E94BE1080
:1007D00017CF0FB6F8940F92F801868D1816B4F45F
:1007E0008189811105C012C0F8018189882371F0C7
:1007F0008E2DB6010E94221281110E947516F801F9
:10080000868D8150868F868D181674F38FEFF801D0
:10081000868F0F900FBE0FB6F8940F92858D181625
:10082000B4F48085811105C012C0F8018085882349
:1008300071F0882DB3010E94221281110E94751659
:10084000F801858D8150858F858D181674F38FEF93
:10085000F801858F0F900FBE0E94A907D1CE0FB669
:10086000F8940F92F801868D1816ECF481898111A5
:1008700006C019C0F8018189811107C014C0680140
:10088000F1E1CF0ED11C20E8E22E8E2DB6010E94A0
:10089000221281110E947516F801868D8150868F73
:1008A000868D18163CF38FEFF801868F0F900FBEE0
:1008B0000FB6F8940F92858D1816ECF4808581118F
:1008C00006C019C0F8018085811107C014C06801F5
:1008D000F8E0CF0ED11C20E8E22E8E2DB6010E944A
:1008E000221281110E947516F801858D8150858F25
:1008F000858D18163CF38FEFF801858F0F900FBE92
:100900000E94A90780E027960FB6F894DEBF0FBEBD
:10091000CDBFDF91CF911F910F91FF90EF90DF90AE
:10092000CF90BF90AF909F908F907F906F905F908F
:080930004F903F902F900895B5
:100938009F92AF92BF92CF92DF92EF92FF920F9366
:100948001F93CF93DF93009709F47EC120917D1AFE
:100958002F5F20937D1AC0916F1AD091701AC80F1B
:10096800D91F8091751A9091761A02960E943914AF
:10097800E091751AF091761AD383C28380916F1A29
:100988009091701AC817D90768F46091751A709118
:10099800761A8091711A9091721A6E5F7F4F0E9439
:1009A800AD1317C06091751A7091761A8091731AF9
:1009B8009091741A6E5F7F4F0E94AD1380916D1AEB
:1009C80090916E1AC817D90720F4D0936E1AC09365
:1009D8006D1A0FB6F8940F9280917D1A815080930A
:1009E8007D1A80917D1A811128C18091841A811104
:1009F80033C026C1D7011596ED91FC911697C68193
:100A0800D781CE010C960E9439148E010E5F1F4FBC
:100A1800C8010E9439148E899091831A981710F48E
:100A28008093831A90E09C01220F331F220F331FFB
:100A3800220F331F820F931FB8018B5F954E0E94C0
:100A4800A714E091751AF091761A9E8986899817ED
:100A580058F0D092801A08C00F2EFEE3EF2EFAE16C
:100A6800FF2EF02DDD24D394F70180818111C2CFB0
:100A78008091811A882309F4D8C08091811A88232B
:100A880009F4D3C0912CBB24B394CC24CA94DC2C95
:100A980080917D1A8111AFC080916F1A9091701A60
:100AA80001969093701A80936F1AE0906F1AF090E5
:100AB800701AE114F10489F58091731A9091741AEF
:100AC8002091711A3091721A3093741A2093731A04
:100AD8009093721A8093711A80917F1A8F5F809316
:100AE8007F1AE091731AF091741A8081811105C000
:100AF800D0926E1AC0926D1A10C0E091731AF091DC
:100B0800741A0580F681E02D0680F781E02D828138
:100B1800938190936E1A80936D1A80916D1A9091BB
:100B28006E1AE816F90610F4A92C4FC0A92CE0910A
:100B3800731AF091741A8081811105C0D0926E1ACF
:100B4800C0926D1A42C0E091731AF091741A058030
:100B5800F681E02DC681D7818A819B81E816F90646
:100B680028F490936E1A80936D1A2FC08E010E5F31
:100B78001F4FC8010E9439148C899D89892B21F047
:100B8800CE010C960E9439148E899091831A981779
:100B980010F48093831A90E09C01220F331F220FD8
:100BA800331F220F331F820F931FB8018B5F954E9F
:100BB8000E94A714E091751AF091761A9E89868989
:100BC800981708F4B4CFAB2CB2CFE091751AF09116
:100BD800761A868990E0FC01EE0FFF1FEE0FFF1FCB
:100BE800EE0FFF1F8E0F9F1FFC01EB5FF54E8081FC
:100BF800823068F50AC08091811A8F5F8093811ACC
:100C08008091801A882341F005C08091801A811153
:100C180001C0A110B092801A8091811A81508093EE
:100C2800811A8091811A811133CF8091801A813085
:100C380031F40E94BE1081E003C080E001C080E072
:100C48000F900FBE811106C00E94BE1003C0809194
:100C5800801AE0CFDF91CF911F910F91FF90EF9015
:0C0C6800DF90CF90BF90AF909F90089558
:100C74002F923F924F925F926F927F928F929F92A8
:100C8400AF92BF92CF92DF92EF92FF920F931F9396
:100C9400CF93DF93CDB7DEB7FE0176966190719066
:100CA40081906F01912C0F2EF9E2AF2EFAE1BF2E45
:100CB400F02D2224239410C1653241F02FEF621AE3
:100CC400720A820A862F0E946F1506C1A82DC301DD
:100CD4000196A11DFC015A2F0E945216603309F09F
:100CE40002C1A82DC3010396A11DE2E06E0E711C82
:100CF400811CF301582D0E94521620ED260F2A3034
:100D040000F53C018A2E422C01C0492C592C852D1A
:100D1400880F880F580E852D880F8053582E560E35
:100D2400FFEF6F1A7F0A8F0AA82DC3010197A1094B
:100D3400FC015A2F0E94521680ED860F8A3038F338
:100D440004C03C018A2E422C592CB092681AA092FD
:100D5400671A90927B1A633609F46AC050F46532BC
:100D640009F477C0683509F440C0662309F4DCC08F
:100D740075C0633709F466C018F4643631F06EC088
:100D8400653719F0683789F169C086010E5F1F4F16
:100D9400F601808191819093661A8093651A643676
:100DA40061F4992354F49195819591099093661A6D
:100DB4008093651A8DE20E94D01580E197E20E942B
:100DC4005F1488EE93E00E945F1484E690E00E9432
:100DD4005F148AE090E00E945F14E5E6FAE1808106
:100DE4000E945D15680175013AC0822D683509F0CD
:100DF400892D80937C1AF60180819181F2E0CF0ED7
:100E0400D11C9093661A8093651A80E090E10E9449
:100E14005F1480E091E00E945F1480E190E00E9402
:100E24005F14E5E6FAE180810E945D15750117C043
:100E340086010E5F1F4FF60180810E94D015680164
:100E440075010DC0F601E080F180C60102966C01C7
:100E540006C085E20E94D015750101C07501E091BC
:100E6400671AF091681A108287010F5F1F4F109361
:100E7400681A0093671AF7018081882309F44EC029
:100E84005520E9F198019FEF950D2F5F3F4FF90130
:100E9400319740814423B1F1592E9111F4CF30930D
:100EA400681A2093671A2BC0442011F080E301C014
:100EB40080E2582E852D0E946F15832D3A9481115E
:100EC400F9CFF7018081882339F00E946F15F8016A
:100ED40081918F018111F9CFF301582D0E9452168F
:100EE4006111EACE21C0F2E06F0E711C811C80ED0D
:100EF400860F8A3008F409CF492C592C26CFF701E4
:100F04008081E3CF3093681A2093671A0F2EFEEF87
:100F14003F2EF02D350C9111C7CFD7CF33243A94FF
:100F2400350C5110C1CFD8CFDF91CF911F910F91C4
:100F3400FF90EF90DF90CF90BF90AF909F908F90F5
:0E0F44007F906F905F904F903F902F90089598
:100F52009F92AF92BF92CF92DF92EF92FF920F9346
:100F62001F93CF93DF930FB6F8940F9280917D1A5F
:100F7200815080937D1A80917D1A811128C18091C0
:100F8200841A811133C026C1D7011596ED91FC91C7
:100F92001697C681D781CE010C960E9439148E0114
:100FA2000E5F1F4FC8010E9439148E899091831AD7
:100FB200981710F48093831A90E09C01220F331F3C
:100FC200220F331F220F331F820F931FB8018B5F33
:100FD200954E0E94A714E091751AF091761A9E8997
:100FE2008689981758F0D092801A08C00F2EFEE317
:100FF200EF2EFAE1FF2EF02DDD24D394F70180814C
:101002008111C2CF8091811A882309F4D8C08091BE
:10101200811A882309F4D3C0912CBB24B394CC2425
:10102200CA94DC2C80917D1A8111AFC080916F1A15
:101032009091701A01969093701A80936F1AE090B3
:101042006F1AF090701AE114F10489F58091731A05
:101052009091741A2091711A3091721A3093741A05
:101062002093731A9093721A8093711A80917F1A47
:101072008F5F80937F1AE091731AF091741A8081C6
:10108200811105C0D0926E1AC0926D1A10C0E09103
:10109200731AF091741A0580F681E02D0680F781AB
:1010A200E02D8281938190936E1A80936D1A8091C4
:1010B2006D1A90916E1AE816F90610F4A92C4FC019
:1010C200A92CE091731AF091741A8081811105C0E4
:1010D200D0926E1AC0926D1A42C0E091731AF091CA
:1010E200741A0580F681E02DC681D7818A819B81A1
:1010F200E816F90628F490936E1A80936D1A2FC0A1
:101102008E010E5F1F4FC8010E9439148C899D8980
:10111200892B21F0CE010C960E9439148E89909170
:10112200831A981710F48093831A90E09C01220F7F
:10113200331F220F331F220F331F820F931FB80159
:101142008B5F954E0E94A714E091751AF091761A62
:101152009E898689981708F4B4CFAB2CB2CFE09160
:10116200751AF091761A868990E0FC01EE0FFF1F46
:10117200EE0FFF1FEE0FFF1F8E0F9F1FFC01EB5F95
:10118200F54E8081823048F50AC08091811A8F5FC6
:101192008093811A8091801A811106C007C08091C4
:1011A200801A811101C0A110B092801A8091811A17
:1011B20081508093811A8091811A811133CF80915D
:1011C200801A813031F40E94BE1081E003C080E0B9
:1011D20001C080E00F900FBE03C08091801AE4CF5F
:1011E200DF91CF911F910F91FF90EF90DF90CF9001
:0811F200BF90AF909F9008959B
:1011FA002F923F924F925F926F927F928F92AF920D
:10120A00BF92CF92DF92EF920F931F93CF93DF9308
:10121A001F921F92CDB7DEB79A8389833A01862E31
:10122A002901180182E290E00E94350A8C01009798
:10123A0009F402C1A114B10409F0F9C0C2010E9463
:10124A00350AF801908F878B009721F4C8010E9414
:10125A00200FF2C0A20165EA70E00E945916F1E07F
:10126A004F1A5108F8018789908D480E591EF301CB
:10127A00582D0E945216F801618FF301582D0E94D1
:10128A0052166623F9F09801265E3F4FA82DC30136
:10129A000196A11DF8E06F0E711C811CFC015A2FEA
:1012AA000E945216F90161939F01E82FF92F5A2FD4
:1012BA000196A11D0E945216662321F086159705F4
:1012CA00A80561F7F80110A28E2CF3E0FE1520F4B0
:1012DA000F2EF3E08F2EF02DF801868A81A2580195
:1012EA00F2E0AF0EB11CC5010E947116C8010C963E
:1012FA000E947116F8011187008784E090E088192E
:10130A00910995878487138B028BA10169817A8160
:10131A00C2010E94AE0EF80191838083C114D104E8
:10132A0019F0F601118300830FB6F8940F92809199
:10133A00841A8F5F8093841A8091751A9091761A15
:10134A00892BA9F51093761A0093751A8091841A3D
:10135A008130E1F585E09AE10E94B5158EE09AE1C7
:10136A000E94B51587E19AE10E94B51580E29AE1DB
:10137A000E94B51580E59AE10E94B51587E49AE1C5
:10138A000E94B5158EE39AE10E94B51585E39AE1AC
:10139A000E94B51580E59AE19093741A8093731AA6
:1013AA0087E49AE19093721A8093711A0FC0809120
:1013BA00821A81110BC0E091751AF091761A86890A
:1013CA00E81620F01093761A0093751A80917E1A07
:1013DA008F5F80937E1AF80186899091831A9817F5
:1013EA0010F48093831A90E09C01220F331F220F7E
:1013FA00331F220F331F820F931FB5018B5F954E48
:10140A000E94A7140F900FBE8091821A882359F068
:10141A00E091751AF091761A86898E1530F40E9439
:10142A00BE1081E00AC081E008C081E006C0FC016C
:10143A00B08EA78AC5010ECF8FEF0F900F90DF9164
:10144A00CF911F910F91EF90DF90CF90BF90AF9007
:10145A008F907F906F905F904F903F902F9008955C
:10146A00EF92FF920F931F93CF93DF93EC010E94A9
:10147A0060168091631A9091641A892B79F5E9E5CF
:10148A00FAE186E092E09183808313821282E1E09E
:10149A00FAE1F093641AE093631AA5E0B2E01092BD
:1014AA00041A1092031A118210828BEF97E1149694
:1014BA009C938E9313971296FC93EE9311978091B7
:1014CA00611A9091621A04979093621A8093611A32
:1014DA0080E090E890935E1A80935D1A80915D1A7D
:1014EA0090915E1A8C239D23892B09F0B2C0209714
:1014FA0009F4B2C0AE014C5F5F4F09F4B0C08091ED
:10150A00611A9091621A8417950708F4ABC0E091AA
:10151A00591AF0915A1AA9E5BAE102C0DF01F90194
:10152A00228133812417350728F42081318121153E
:10153A003105A1F76091631A7091641AE617F707EB
:10154A0009F493C0CD91DC9111977E0184E0E80EF5
:10155A00F11C808191818D939C9382819381841B5C
:10156A00950B8930910508F452C09F01240F351F4D
:10157A00D90113969C938E93129753834283A9E5BC
:10158A00BAE101C0DC018D919C91119782179307F2
:10159A00C8F312964D915C9113978D01040F151F94
:1015AA002017310751F4E9012A813B81420F531F69
:1015BA0013965C934E9312979D01E9014A815B81D0
:1015CA008901040F151F80179107C9F46017710765
:1015DA0091F0E8018A819B81480F591FE9015B83D9
:1015EA004A838D919C911197EC0188819981E90137
:1015FA009983888307C0E9017983688303C0E90175
:10160A0099838883A217B30711F02D933C93228103
:10161A0033818091611A9091621A821B930B909385
:10162A00621A8093611A40915F1A5091601A841766
:10163A00950720F49093601A80935F1A80915D1A3F
:10164A0090915E1A282B392B3383228311821082C0
:10165A000EC0E12CF12C0BC0E12CF12C08C0E12CBE
:10166A00F12C05C0E12CF12C02C0E12CF12C0E94D6
:10167A00A907C701DF91CF911F910F91FF90EF90BA
:02168A000895C1
:10168C00CF92DF92EF920F931F93CF93DF9382E26F
:10169C0090E00E94350AEC01892B09F4D5C085E550
:1016AC0090E00E94350A988F8F8B009721F4CE0121
:1016BC000E94200FC9C045E550E065EA70E00E9429
:1016CC0059160F89188D0C5A1F4F89E4898F84E99C
:1016DC0091E0A0E09E01265E3F4F0F2EFBE9CF2E3E
:1016EC00F1E0DF2EF0E0EF2EF02DFC015A2F0E94DE
:1016FC0052160196A11DF90161939F01662321F0F9
:10170C008C159D05AE0589F718A21E8A19A26E01CB
:10171C00F2E0CF0ED11CC6010E947116CE010C96C0
:10172C000E947116D987C88784E090E09D878C87CA
:10173C00DB8BCA8B40E050E067E870E0C8010E9488
:10174C00AE0E998388830FB6F8940F928091841A09
:10175C008F5F8093841A8091751A9091761A892BD9
:10176C00A9F5D093761AC093751A8091841A81309A
:10177C00E1F585E09AE10E94B5158EE09AE10E94B0
:10178C00B51587E19AE10E94B51580E29AE10E94B5
:10179C00B51580E59AE10E94B51587E49AE10E949F
:1017AC00B5158EE39AE10E94B51585E39AE10E9486
:1017BC00B51580E59AE19093741A8093731A87E4B7
:1017CC009AE19093721A8093711A0FC08091821AC9
:1017DC0081110BC0E091751AF091761A86898111EE
:1017EC0004C0D093761AC093751A80917E1A8F5FBD
:1017FC0080937E1A8E899091831A981710F4809397
:10180C00831A90E09C01220F331F220F331F220FEB
:10181C00331F820F931FB6018B5F954E0E94A71446
:10182C000F900FBE8091821A882321F08091751A37
:10183C009091761AF89481E08093821A1092701A23
:10184C0010926F1A0E946E12DF91CF911F910F911F
:08185C00EF90DF90CF9008959A
:10186400CF92DF92EF92FF920F931F93CF93DF9368
:1018740080917D1A8111B7C080916F1A9091701A6E
:1018840001969093701A80936F1AE0906F1AF090FB
:10189400701AE114F10499F58091731A9091741AF5
:1018A4002091711A3091721A3093741A2093731A1A
:1018B4009093721A8093711A80917F1A8F5F80932C
:1018C4007F1AE091731AF091741A8081811107C014
:1018D4008FEF9FEF90936E1A80936D1A10C0E09172
:1018E400731AF091741A0580F681E02D0680F78151
:1018F400E02D8281938190936E1A80936D1A80916A
:101904006D1A90916E1AE816F90610F4D12C53C092
:10191400D12CCC24C394E091731AF091741A808171
:10192400811107C08FEF9FEF90936E1A80936D1A09
:1019340042C0E091731AF091741A0580F681E02D8B
:10194400C681D7818A819B81E816F90628F4909391
:101954006E1A80936D1A2FC08E010E5F1F4FC8013F
:101964000E9439148C899D89892B21F0CE010C9613
:101974000E9439148E899091831A981710F48093D9
:10198400831A90E09C01220F331F220F331F220F72
:10199400331F820F931FB8018B5F954E0E94A714CB
:1019A400E091751AF091761A9E898689981708F441
:1019B400B2CFDC2CB0CFE091751AF091761A8689FB
:1019C40090E0FC01EE0FFF1FEE0FFF1FEE0FFF1F55
:1019D4008E0F9F1FFC01EB5FF54E8081823048F033
:1019E400DD24D39406C08091811A8F5F8093811A7D
:1019F400D12C8091801A882311F0DD24D3948D2D6D
:101A0400DF91CF911F910F91FF90EF90DF90CF90D6
:021A1400089533
:101A1600CF93C82F662331F08091851A8160809319
:101A2600851A05C08091851A8E7F8093851A8091CC
:101A3600851A8D7F8093851A6091851A80E00E94B1
:101A46004A158091851A8F778093851A8091851A19
:101A56008F7B8093851A8091851A8F7D8093851A56
:101A66008091851A8F7E8093851ACC232CF48091E1
:101A7600851A80688093851AC6FF05C08091851AED
:101A860080648093851AC5FF05C08091851A80629F
:101A96008093851AC4FF05C08091851A8061809362
:101AA600851A6091851A80E00E944A150E940016E8
:101AB6008091851A8F778093851A8091851A8F7BFE
:101AC6008093851A8091851A8F7D8093851A8091DF
:101AD600851A8F7E8093851AC3FF05C08091851A6B
:101AE60080688093851AC2FF05C08091851A80643C
:101AF6008093851AC1FF05C08091851A8062809304
:101B0600851AC0FF05C08091851A80618093851A69
:101B16006091851A80E00E944A150E940016809105
:101B2600851A80618093851A8091851A80628093D8
:101B3600851A8091851A80648093851A8091851A0A
:101B460080688093851A6091851A80E00E944A1504
:041B5600CF9108958E
:101B5A0080917D1A882321F081E08093801A08956C
:101B6A001092801AA091751AB091761AE091751A9E
:101B7A00F091761A2D913C918789908D821793075F
:101B8A0060F06091751A7091761A8091751A909129
:101B9A00761A675E7F4F0E94C3158091831A90E080
:101BAA00FC01EE0FFF1FEE0FFF1FEE0FFF1F8E0F40
:101BBA009F1FFC01EB5FF54E8081811117C0809158
:101BCA00831A81508093831A8091831A90E0FC01D2
:101BDA00EE0FFF1FEE0FFF1FEE0FFF1F8E0F9F1F4F
:101BEA00FC01EB5FF54E8081882349F38091831ACB
:101BFA0090E09C01220F331F220F331F220F331F45
:101C0A00280F391FD901AB5FB54E1196ED91FC91A2
:101C1A0012970280F381E02D1296FC93EE931197AE
:101C2A00285F354EE217F30729F422813381FD013B
:101C3A0032832183FC01EE0FFF1FEE0FFF1FEE0F11
:101C4A00FF1F8E0F9F1FFC01EB5FF54E0180F28193
:101C5A00E02D868197819093761A8093751A08955C
:101C6A000F920FB6F8940F920BB60F920CB60F9212
:101C7A001F9211242F923F924F925F926F927F92FE
:101C8A008F929F92AF92BF92CF92DF92EF92FF9282
:101C9A000F931F932F933F934F935F936F937F936A
:101CAA008F939F93AF93BF93CF93DF93EF93FF935A
:101CBA00A091751AB091761A0DB60D920EB60D92C4
:101CCA008091691A90916A1A019790936A1A80937F
:101CDA00691A892B51F40E94E91480916B1A909128
:101CEA006C1A90936A1A8093691A0E94320C8111B5
:101CFA000E94AD0DA091751AB091761ACD91CDBF03
:101D0A00DD91DEBFFF91EF91DF91CF91BF91AF914E
:101D1A009F918F917F916F915F914F913F912F91F9
:101D2A001F910F91FF90EF90DF90CF90BF90AF90EF
:101D3A009F908F907F906F905F904F903F902F90E1
:101D4A001F900F900CBE0F900BBE0F900FBE0F90FE
:021D5A000895EA
:101D5C0031E1FC013083319722E220833197A3E3F8
:101D6C00A0833197608331977083319710823197BC
:101D7C001082319760E8608331971082319710821E
:101D8C0031971082319762E06083319763E0608312
:101D9C00319764E06083319765E06083319766E04A
:101DAC006083319767E06083319768E06083319797
:101DBC0069E06083319760E16083319730833197BC
:101DCC0032E13083319733E13083319734E1308322
:101DDC00319735E13083319736E13083319737E1F4
:101DEC003083319738E13083319739E13083319743
:101DFC0030E23083319731E2308331972083319751
:101E0C0023E220833197408331975083319726E228
:101E1C002083319727E22083319728E22083319762
:101E2C0029E22083319720E32083319721E320831B
:041E3C0089970895E5
:101E4000CF93DF93009709F468C0FC013497228197
:101E5000338140915D1A50915E1AB9016423752354
:101E6000672B09F45AC060817181672B09F055C056
:101E7000EF014095509524233523338322830E941C
:101E800060164A815B818091611A9091621A840F79
:101E9000951F9093621A8093611AE9E5FAE101C0F7
:101EA000FC01808191818C179D07D0F322813381C1
:101EB000BF01620F731FC617D70729F4240F351F00
:101EC00033832283EF012A813B81DE01A20FB31FFE
:101ED0008A179B07C9F48091631A9091641AA81716
:101EE000B90779F012968D919C911397280F391F9D
:101EF0003B832A83A081B1818D919C9199838883B2
:101F000005C0B983A88302C099838883EC17FD07B5
:101F100011F0D183C0830E94A907DF91CF9108956A
:101F2000CF93882331F08091851A81608093851A40
:101F300005C08091851A8E7F8093851A8091851ABD
:101F400082608093851A6091851A80E00E944A150C
:101F500062E080E00E94811600C064E080E00E94A0
:101F60000515811102C0C0E101C0C0E065E080E05C
:101F70000E940515811101C0C06266E080E00E94E8
:101F80000515811101C0C06467E080E00E9405155D
:101F9000811101C0C06862E080E00E94851600C027
:101FA00062E080E00E94811600C064E080E00E9450
:101FB0000515811101C0C16065E080E00E94051532
:101FC000811101C0C26066E080E00E9405158111A8
:101FD00001C0C46067E080E00E940515811101C066
:101FE000C86062E080E00E9485168C2FCF91089532
:101FF000AF92BF92CF92DF92EF920F931F930E9406
:10200000421687E690E00E9493158DE00E94D01161
:102010000E947D1680E00E94371560E080E00E94FB
:10202000141640E062E083E00E947A1190937A1ADD
:102030008093791A40E062E083E00E947A119093E5
:10204000781A8093771A8AE791E0A0E0AC0160E803
:102050001F921F921F92A12CB12CC12CD12CEE24C7
:10206000E39400E010E020E034E087EB92E10E948E
:10207000FD088DE791E0A0E0AC0160E81F921F929F
:102080001F926894EE24E1F820E034E08EEF92E1B4
:102090000E94FD080E94460B0F900F900F900F902A
:1020A0000F900F9080E090E01F910F91EF90DF90E4
:0820B000CF90BF90AF9008959E
:1020B8000F931F93CF93DF93FC01892B09F455C02D
:1020C8002689A091751AB091761A56968C91281780
:1020D80008F04BC084859585992364F0A091751A02
:1020E800B091761A56963C9184E090E0831B910952
:1020F8009587848730E0C901880F991F880F991F39
:10210800880F991F280F391F2B5F354E82859385BD
:102118008217930719F58F01EF012296CE010E94CD
:102128003914E091751AF091761A8689F801868B30
:102138009091831A981710F48093831A90E09C0169
:10214800220F331F220F331F220F331F820F931FBB
:10215800BE018B5F954E0E94A71407C0A091751A07
:10216800B091761A56968C91868BDF91CF911F91FC
:042178000F91089526
:10217C000F920FB6F8940F920BB60F920CB60F92FB
:10218C001F9211242F923F924F925F926F927F92E7
:10219C008F929F92AF92BF92CF92DF92EF92FF926B
:1021AC000F931F932F933F934F935F936F937F9353
:1021BC008F939F93AF93BF93CF93DF93EF93FF9343
:1021CC00A091751AB091761A0DB60D920EB60D92AD
:1021DC000E94AD0DA091751AB091761ACD91CDBF1C
:1021EC00DD91DEBFFF91EF91DF91CF91BF91AF9168
:1021FC009F918F917F916F915F914F913F912F9113
:10220C001F910F91FF90EF90DF90CF90BF90AF9008
:10221C009F908F907F906F905F904F903F902F90FA
:10222C001F900F900CBE0F900BBE0F900FBE0F9017
:02223C00089503
:10223E00CF93DF93EB016091751A7091761A645FFC
:10224E007F4F0E94AD138091751A9091761A029667
:10225E000E943914CF3F8FEFD80759F46091751A49
:10226E007091761A6E5F7F4F85E39AE10E94A714F4
:10227E0037C080916F1A9091701AC80FD91FE091D4
:10228E00751AF091761AD383C28380916F1A90914A
:10229E00701AC817D90768F46091751A7091761A7A
:1022AE008091711A9091721A6E5F7F4F0E94AD13DA
:1022BE0017C06091751A7091761A8091731A909169
:1022CE00741A6E5F7F4F0E94AD1380916D1A9091BC
:1022DE006E1AC817D90720F4D0936E1AC0936D1AD0
:0622EE00DF91CF9108957D
:1022F400CF92DF92EF92FF920F931F93CF93DF93CE
:10230400882309F43FC0E62EF82E8FE190E00E9466
:10231400350AEC01892BC1F1CE2CD12CFC9C800117
:10232400FD9C100D1124C80101960E94350A998361
:102334008883009709F1FB8EEC8E0FB6F8940F9208
:102344009C01200F311F3B832A831A8E9D838C832B
:102354000C191D09080F191F1F830E838FEF8D8F12
:102364008E8FCE0108960E94B515CE0141960E942B
:10237400B5150F900FBE08C0CE010E94200FC0E01B
:10238400D0E002C0C0E0D0E0CE01DF91CF911F9138
:0C2394000F91FF90EF90DF90CF90089524
:1023A0001F93CF93DF93182F0E9430161092851A37
:1023B0006091851A80E00E944A1580E09AEF0197AB
:1023C000F1F78091851A80628093851A8091851A31
:1023D00080618093851A6091851A80E00E944A1579
:1023E0000E94001680E09EE40197F1F70E9400161B
:1023F000C0E0D1E0CE010197F1F70E940016CE01B6
:102400000197F1F78091851A8F7E8093851A6091EC
:10241000851A80E00E944A150E9400162197F1F764
:1024200088E20E940A1688E00E940A160E94791625
:1024300086E00E940A16812F0E940A16DF91CF9132
:042440001F9108954B
:102444000F931F93CF93DF93A82FCB010596A11D64
:10245400FC015A2F0E943916FB01C681D7818E01D7
:10246400045F1F4FC8010E94391480917D1A8111A5
:102474001CC00A501109C8010E9439148E89909118
:10248400831A981710F48093831A90E09C01220F0A
:10249400331F220F331F220F331F820F931FB801E4
:1024A4008B5F954E0E94A71405C0B8018EE39AE194
:1024B4000E94A714E091751AF091761A9E89868974
:1024C400891720F481E08093801A01C080E0DF91B5
:0824D400CF911F910F910895B3
:1024DC0084EF91E090936C1A80936B1A90936A1A24
:1024EC008093691A81E08093990083EF8093980020
:1024FC008BE080939100E1E7F0E080818260808343
:10250C00A091751AB091761ACD91CDBFDD91DEBF39
:10251C00FF91EF91DF91CF91BF91AF919F918F91EF
:10252C007F916F915F914F913F912F911F910F91DF
:10253C00FF90EF90DF90CF90BF90AF909F908F90D7
:10254C007F906F905F904F903F902F901F900F90C7
:10255C000CBE0F900BBE0F900FBE0F90089581E034
:02256C000895D0
:10256E00CF93DF931F921F92CDB7DEB71EE4CE013D
:10257E0001966C0120E8E22E0F2EF0E86F2EF1E0AE
:10258E007F2EF0E08F2EF02D19830E940C1489837C
:10259E008E34D9F300E02AE030E06E2DA601809152
:1025AE00791A90917A1A0E94CC0081110DC08981FE
:1025BE001F928F938F927F926F920E943A060F9086
:1025CE000F900F900F900F9020E04AE050E0BE0168
:1025DE006E5F7F4F8091771A9091781A0E94C80291
:0E25EE00882391F38AE090E00E949C04CDCFF8
:1025FC00CF93DF931F921F92CDB7DEB76E0122E00F
:10260C00C20ED11C80E8E82E20E04AE050E0BE016A
:10261C006F5F7F4F8091791A90917A1A0E94C8024D
:10262C00882381F089818E3469F00E944A160E94B9
:10263C0079169FEF23EC89E0915020408040E1F720
:10264C0000C000000E941E16813011F00E948314FD
:10265C0000E02AE030E06E2DA6018091771A90916F
:08266C00781A0E94CC00D0CFC7
:10267400FC010FB6F8940F9220916F1A3091701AE2
:10268400DB018D919C918F3FBFEF9B0721F140911E
:102694007F1A5081541729F041815281241735073C
:1026A400E0F441815281D901A41BB50BA817B907E5
:1026B400B0F4421B530B840F951FDB018D939C9345
:1026C40080917F1A808380916F1A9091701A9283FF
:1026D400818380E005C080E003C081E001C081E027
:0626E4000F900FBE0895E7
:1026EA000F931F93CF93DF93009769F1FC0136890B
:1026FA0021A1321741F1EC018C010E5F1F4FC80175
:10270A000E94391489A18E8B2C853D85332334F0A0
:10271A0024E030E0281B31093D872C879091831AE9
:10272A00981710F48093831A90E09C01220F331FAC
:10273A00220F331F220F331F820F931FB8018B5FA3
:10274A00954E0E94A714DF91CF911F910F91089582
:10275A00CF93DF93EB01488159814F3F2FEF520707
:10276A0021F4FC01A781B0850DC0DC01139601C0DC
:10277A00DF011296ED91FC91139720813181421766
:10278A005307B0F71296ED91FC911397FB83EA83F6
:10279A00D583C483BD83AC831396DC93CE931297FF
:1027AA0099878887FC0120812F5F2083DF91CF9151
:0227BA00089580
:1027BC00CF93DF93811124C0683020F58091000203
:1027CC00442349F0C1E0D0E002C0CC0FDD1F6A9574
:1027DC00E2F7C82B09C0C1E0D0E002C0CC0FDD1F6E
:1027EC006A95E2F7C095C823C09300028EE40E945C
:1027FC00C8148C2F0E9481150E94271680E003C0FC
:0C280C008FEF01C08FEFDF91CF91089596
:10281800109882B18E6082B907990BC02FEF85EAB4
:102828009EE0215080409040E1F700C0000081E325
:10283800089506990BC02FEF85EA9EE0215080404D
:102848009040E1F700C0000082E3089505990BC0AD
:102858002FEF85EA9EE0215080409040E1F700C0CC
:0A286800000083E308958EE4089554
:10287200CF93DF93FC01A085B185C281D38184818E
:1028820095819D838C83C481D581828193819B8331
:102892008A8311968D919C911297E817F90731F46A
:1028A2008481958112969C938E931197118610863E
:0C28B2008C9181508C93DF91CF910895A0
:1028BE00AC012091651A3091661A28173907B8F0C5
:1028CE0090E0241B350B9F5F24173507D0F730930C
:1028DE00661A2093651A80917B1A811104C091119A
:1028EE0002C0089590E0892F0E945D150895809191
:0828FE007B1A8111F7CF089548
:10290600CF93C82F0E94DD15CA3049F4803410F0E9
:1029160080E001C080E480580E940A1613C080310E
:1029260029F460E080EC0E940B0D06C0803521F48E
:1029360060E080E80E940B0D0E94DD1561E08C2F9F
:082946000E940B0DCF910895D2
:10294E00CF93DF939C01FB01DC011196CD91DC91BD
:10295E001297D383C2838C819D81958384838C81CE
:10296E009D81DC0113967C936E9312977D836C830D
:10297E0031872087F90180818F5F8083DF91CF912E
:02298E000895AA
:1029900094EA9093BC00ECEBF0E090819923ECF783
:1029A0009091B900987F983091F48093BB0084E8AF
:1029B0008093BC00ECEBF0E080818823ECF79091F1
:1029C000B900987F81E0983119F480E0089581E0A2
:0229D000089568
:1029D2008F938FB78F93F894809101028F5F8093CA
:1029E2000102809102028F4F8093020280910302C2
:1029F2008F4F80930302809104028F4F80930402D1
:082A02008F918FBF8F910895A1
:102A0A00CF93811111C0683088F4C62F0E94A41593
:102A1A008F3F69F0082E000C990B02C09595879597
:102A2A00CA95E2F7817003C08FEF01C08FEFCF9193
:022A3A000895FD
:102A3C00CF92DF92EF92DC016A01E62E280F391F4C
:102A4C00A217B30751F0F6015E2D0E9452166D933A
:102A5C004FEFC41AD40AE40AF3CFEF90DF90CF9073
:022A6C000895CB
:102A6E00882331F08091851A877F8093851A05C05F
:102A7E008091851A88608093851A6091851A80E00E
:062A8E000E944A150895A4
:102A9400CF9381110DC0C62F609300028EE40E9473
:102AA400C8148C2F0E9481150E94271680E001C053
:062AB4008FEFCF910895A1
:102ABA008A3030F090917C1A911104C097E503C0D6
:102ACA0090E301C097E3890F0E94D01581E08093BB
:042ADA007B1A0895C6
:102ADE008A3041F4E0ECF0E0908195FFFDCF9DE06F
:102AEE009093C600E0ECF0E0908195FFFDCF8093CF
:042AFE00C600089571
:102B02008093BB0084E88093BC00ECEBF0E0808112
:102B12008823ECF79091B900987F81E0983209F40C
:042B220080E00895B2
:102B26009093C5008093C40088E18093C100E2ECD5
:102B3600F0E080818660808380838081877F8083C8
:022B46000895F0
:102B4800CF9381110AC08FE40E94C8140E94F51522
:102B5800C82FC0950E94271601C0CFEF8C2FCF91A8
:022B68000895CE
:102B6A00FC010396928381832FEF3FEF3483238303
:0C2B7A00968385839087878310820895DE
:102B8600279A2F9A2FEF87EA91E6215080409040AE
:0A2B9600E1F700C000001F9AF5CF20
:102BA000E091671AF091681A9F012F5F3F4F3093B1
:0A2BB000681A2093671A80830895C5
:102BBA0080E00E94900F8823DCF388E090E0019780
:0A2BCA00F1F780E00E94900F0895DB
:102BD40020917F1AFC01208320916F1A3091701A82
:062BE400328321830895F5
:102BEA0084E88093BC00ECEBF0E080818823ECF76A
:062BFA008091BB0008956C
:102C000062E080E00E94811600C062E080E00E94E5
:042C10008516089588
:102C1400CF93C82F0E94DD1560E08C2F0E940B0D0E
:042C2400CF910895AF
:102C2800611104C080580E940A16089580540E94B9
:042C38000A160895DB
:102C3C008091C00088231CF48091C600089581E027
:022C4C000895E9
:102C4E0084E98093BC00ECEBF0E0808184FDFDCF45
:022C5E000895D7
:102C60000E94661685E38A95F1F700001092000233
:022C70000895C5
:102C720057FD04C05BBF679177910895619171918F
:022C82000895B3
:102C840080EF82B98FE081B985B78F7E85BF0895C3
:102C9400E0ECF0E0908195FFFDCF8093C6000895AD
:0E2CA40057FD03C05BBF6791089560810895DE
:0E2CB200DC0101C06D9341505040E0F70895E1
:0C2CC00080917D1A8F5F80937D1A08952B
:0C2CCC001092B90082E18093B8000895D6
:0A2CD8008091751A9091761A089504
:082CE200FC0111861086089523
:082CEA0081E08093801A089537
:082CF20081E00E940A1608951A
:082CFA0082E00E940A16089511
:082D020041E00E94DE13089578
:082D0A0040E00E94DE13089571
:062D12000E94350E189529
:042D18000C94000017
:022D1C00FF179F
:022D1E00FF179D
:022D2000FFFFB3
:00000001FF
